:020000040000FA
:04000000C9EF3BF019
:10772E000000C841000E976E000E906E000E916E16
:10773E001200400ED36E000ED26E000E9B6E000E27
:10774E00B56E1200E0EC3BF0A0EC3BF099EC3BF098
:10775E00B2EC3BF01200000EC16E050EC06E000EB4
:10776E00C36E000EC46E010EC26E1200026E02C017
:10777E0001F001460146C2500118830B0118C26E7A
:10778E00C28012002E0EF66E770EF76E000EF86E99
:10779E0000EE32F010EE04F00900F5CFEEFFE550EA
:1077AE00E150FAE1376A366A000EF86E00011FEFFB
:1077BE003CF0000E8D6E000E8C6E000E896E000E6B
:1077CE008A6E000E8B6E070E966E92689368C70EC9
:1077DE00946E95680F015E69C40E5D6F3F0E5C6F0F
:1077EE00070E5F6F2F0E5B6F000E856EF18E12000F
:1077FE00056E05C003F003460346C2500318830B03
:10780E000318C26EC280C2820EEF3CF00400C2B2F8
:10781E0013EF3CF015EF3CF00DEF3CF0C450046E4E
:10782E00036AC3500324016E000E0420026E120080
:10783E00A9EC3BF0700ED36E400E9B6E959092802D
:10784E00010EBDEC3BF0010EFFEC3BF001C030F041
:10785E0002C031F0000E136E000E146E000E156E87
:10786E00000E166E30C001F031C002F0000E02BEE6
:10787E00FF0E036E046E010E11EC3DF001C00FF011
:10788E0002C010F003C011F004C012F0EBEC3DF09A
:10789E000FC028F010C029F011C02AF012C02BF032
:1078AE0028C00FF029C010F02AC011F02BC012F022
:1078BE00000E136E000E146EC80E156E420E166E6E
:1078CE00EBEC3DF00FC02CF010C02DF011C02EF0DF
:1078DE0012C02FF0000E016E000E026EC80E036E67
:1078EE00410E046E2CC005F02DC006F02EC007F020
:1078FE002FC008F08FEC3CF0D8B088EF3CF08AEF48
:10790E003CF02AEF3CF08C802AEF3CF000EF00F0C8
:10791E00000E0114096E000E02140A6E800E03147E
:10792E000B6E7F0E04140C6E09500A100B100C1007
:10793E00D8A4A4EF3CF0A6EF3CF0AEEF3CF0000E66
:10794E00016E000E026E000E036E000E046E000E2F
:10795E000514096E000E06140A6E800E07140B6EC7
:10796E007F0E08140C6E09500A100B100C10D8A4C0
:10797E00C3EF3CF0C5EF3CF0CDEF3CF0000E056ED2
:10798E00000E066E000E076E000E086E04AED2EFED
:10799E003CF0D4EF3CF0DDEF3CF0016C021ED8B0B1
:1079AE00022A031ED8B0032A800E045608AEE2EF58
:1079BE003CF0E4EF3CF0EDEF3CF0056C061ED8B069
:1079CE00062A071ED8B0072A800E0856000E011A86
:1079DE00000E021A000E031A800E041A000E051A6B
:1079EE00000E061A000E071A800E081A0550015CCA
:1079FE00065002580750035808500458D8B00AEFE2
:107A0E003DF00CEF3DF00FEF3DF0D89010EF3DF054
:107A1E00D8801200096E0950D8B418EF3DF01AEF55
:107A2E003DF03CEF3DF004BE21EF3DF01FEF3DF089
:107A3E003CEF3DF001C005F002C006F003C007F0B8
:107A4E0004C008F0051E061E071E081E052A000E9D
:107A5E0006220722082205C00BF006C00CF007C054
:107A6E000DF008C00EF044EF3DF001C00BF002C067
:107A7E000CF003C00DF004C00EF001500210031004
:107A8E000410D8A44DEF3DF04FEF3DF059EF3DF00F
:107A9E00000E016E000E026E000E036E000E046EDE
:107AAE00EAEF3DF0960E0A6E63EF3DF00A2AD8908B
:107ABE000E320D320C320B32000E0B14056E000E10
:107ACE000C14066E000E0D14076EFE0E0E14086ECC
:107ADE000550061007100810D8A478EF3DF07AEF85
:107AEE003DF05DEF3DF088EF3DF00A2A010E0B26CA
:107AFE00000E0C220D220E22D8900E320D320C32B8
:107B0E000B32000E0B14056E000E0C14066E000EDA
:107B1E000D14076EFF0E0E14086E0550061007109A
:107B2E000810D8A49DEF3DF09FEF3DF07CEF3DF0A7
:107B3E00A7EF3DF00A06D8900B360C360D360E36F2
:107B4E000DBEACEF3DF0AEEF3DF0B6EF3DF0020EE8
:107B5E000A60B4EF3DF0B6EF3DF0A1EF3DF00AB094
:107B6E00BBEF3DF0BDEF3DF0BEEF3DF00D9ED8906A
:107B7E000A320AC005F0066A076A086A05C008F0EC
:107B8E00076A066A056A05500B1206500C1207505A
:107B9E000D1208500E120950D8B4D8EF3DF0DAEF9E
:107BAE003DF0E2EF3DF004BEE1EF3DF0DFEF3DF0E2
:107BBE00E2EF3DF00E8E0BC001F00CC002F00DC0D6
:107BCE0003F00EC004F012001250800B1B6E125008
:107BDE001224216E11AEF6EF3DF0F8EF3DF0F9EF05
:107BEE003DF021802150D8B4FFEF3DF001EF3EF083
:107BFE0014EF3EF02128D8A407EF3EF009EF3EF037
:107C0E0011EF3EF0000E0F6E000E106E000E116E94
:107C1E00000E126E118E1CEF3EF0000E0F6E000E57
:107C2E00106E000E116E000E126E1650800B1B1A87
:107C3E0016501624206E15AE27EF3EF029EF3EF0BB
:107C4E002AEF3EF020802050D8B430EF3EF032EFD5
:107C5E003EF045EF3EF02028D8A438EF3EF03AEF44
:107C6E003EF042EF3EF0000E136E000E146E000E4C
:107C7E00156E000E166E158E4DEF3EF0000E136E45
:107C8E00000E146E000E156E000E166E2050D8B437
:107C9E0053EF3EF055EF3EF05DEF3EF02150D8A48D
:107CAE005BEF3EF05DEF3EF067EF3EF0000E0F6EC5
:107CBE00000E106E000E116E000E126EFFEF3FF0F2
:107CCE0015500F02F3CF26F0F4CF27F026501C6E7E
:107CDE001D6A1E6A1F6A2750226E236A246A256A4D
:107CEE0014501002F3CF26F0F4CF27F026501C26A6
:107CFE00000E1D221E221F2227502226000E232296
:107D0E002422252213501102F3CF26F0F4CF27F0B0
:107D1E0026501C26000E1D221E221F222750222610
:107D2E00000E2322242225221EC01FF01DC01EF08D
:107D3E001CC01DF01C6A13501002F3CF26F0F4CFB6
:107D4E0027F026501C2627501D22000E1E22000E44
:107D5E001F2214500F02F3CF26F0F4CF27F0265037
:107D6E001C2627501D22000E1E22000E1F221EC092
:107D7E001FF01DC01EF01CC01DF01C6A13500F0218
:107D8E00F3CF26F0F4CF27F026501C2627501D22C5
:107D9E00000E1E22000E1F2215501002F3CF26F0E9
:107DAE00F4CF27F02650222627502322000E24221D
:107DBE00000E252214501102F3CF26F0F4CF27F037
:107DCE002650222627502322000E2422000E252282
:107DDE0015501102F3CF26F0F4CF27F02650176E70
:107DEE002750186E196A1A6A19C01AF018C019F0BD
:107DFE0017C018F0176A1750222618502322195050
:107E0E0024221A5025221CC017F01DC018F01EC0C7
:107E1E0019F01FC01AF0190E1AEF3FF0D8901A324F
:107E2E00193218321732E82E15EF3FF0175022266E
:107E3E0018502322195024221A5025221EC01FF03A
:107E4E001DC01EF01CC01DF01C6A205021C017F072
:107E5E00186A1726000E1822820E1724266EFF0EA1
:107E6E001820276E50EF3FF0D89022362336243656
:107E7E0025361FAE45EF3FF047EF3FF048EF3FF09E
:107E8E002280D8901C361D361E361F362606D8A0E8
:107E9E00270624AE55EF3FF057EF3FF03BEF3FF094
:107EAE00000E206E1FAE5EEF3FF060EF3FF084EFEE
:107EBE003FF0FF0E1C14176EFF0E1D14186EFF0EF2
:107ECE001E14196E7F0E1F141A6E175018101910EB
:107EDE001A10D8B475EF3FF077EF3FF07BEF3FF01D
:107EEE00010E206E84EF3FF022A080EF3FF082EF74
:107EFE003FF084EF3FF077EF3FF02050D8B48AEF99
:107F0E003FF08CEF3FF0B0EF3FF0010E2226000E57
:107F1E0023222422252225A097EF3FF099EF3FF050
:107F2E00B0EF3FF022C017F023C018F024C019F0B4
:107F3E0025C01AF01A341A3219321832173217C0F5
:107F4E0022F018C023F019C024F01AC025F0264ADA
:107F5E00272A27BEBBEF3FF0275008E12628D8A0DE
:107F6E00BBEF3FF0BDEF3FF0C7EF3FF0000E226ECC
:107F7E00000E236E800E246E7F0E256EF5EF3FF001
:107F8E0027BED4EF3FF0275006E12604D8B0D2EF3B
:107F9E003FF0D4EF3FF0E0EF3FF0000E226E000E08
:107FAE00236E000E246E000E256E000E1B6EF5EF76
:107FBE003FF026C021F0FF0E2216FF0E23167F0E75
:107FCE002416000E251621A0EFEF3FF0F1EF3FF043
:107FDE00F2EF3FF0248ED8902130256E1B502512E3
:107FEE0022C00FF023C010F024C011F025C012F0F3
:027FFE0012006F
:020000040020DA
:08000000FFFFFFFFFFFFFFFF00
:020000040030CA
:0E00000000285F3FFFD381FF0FC00FE00F40CD
:00000001FF
